:03000000020908EA
:0C090800787FE4F6D8FD75811F02094FCE
:1009C200020800000A0A0000000000000000000007
:1009D2000A16003F0006005B004F0066021400008A
:100A0200E4FFFEE4FCFD0DBD00010CED64644C70DE
:0C0A1200F50FBF00010EBE01EABFF4E7C3
:010A1E0022B5
:100A1F00E4FFFEE4FCFD0DBD00010CED64C84C705D
:0C0A2F00F50FBF00010EBE07EABFD0E7C4
:010A3B002298
:100A3C00E4FFFEE4FCFD0DBD00010CED64644C70A4
:0C0A4C00F50FBF00010EBE03EABFE8E793
:010A5800227B
:100A5900E4FFFEE4FCFD0DBD00010CED645A4C7091
:0C0A6900F50FBF00010EBE03EABFE8E776
:010A7500225E
:10099400209406750A00750B01209306750C0075EA
:1009A4000D01209206750E00750F01209106751039
:0E09B4000075110120900675120075130122C6
:0C0A9800D296C295120A1FD295C2962277
:100A7600D2B0C2B1120A3CC2B0D2B1120A59C2B146
:010A8600224D
:100A8700D2B1C2B0120A3CC2B1D2B0120A59C2B036
:010A9700223C
:0C0AA400758911758CDDE4F58AD28C2276
:03000B00020AB72F
:040AB700120994325A
:070AB000D2AFD2AAD28A22C4
:030013000209E3FC
:1009E300C0E0C0D075D000C004C005C006C0071267
:0F09F3000A98D007D006D005D004D0D0D0E0327B
:10080000120AA4120AB0C296D29575B0C0D2AFD265
:10081000A975A03FE4F514F515F514F515E51525B2
:10082000E0240AF8E6FE08E64E604CD3E51595098B
:10083000E5086480F8E514648098403BE509651597
:100840007004E5086514602F120A760509E5097041
:10085000020508FF25E02416F808E6F5A0EF25E0DC
:10086000240AF8E6FE08E64E60D2E50925E0240AEF
:10087000F8E4F608F680C50515E51570020514C301
:100880009405E514648094804093751400751504F4
:10089000751400751504C3E5146480948050030238
:1008A0000814E51525E0240AF8E6FE08E64E604E39
:1008B000C3E5159509E5086480F8E514648098504F
:1008C0003DE50965157004E50865146031120A8775
:1008D000E509150970021508AF09EF25E02416F89F
:1008E00008E6F5A0EF25E0240AF8E6FE08E64E60EB
:1008F000D0E50925E0240AF8E4F608F680C3E515FA
:08090000151570921514808E8C
:10091400020800E493A3F8E493A34003F68001F2F1
:1009240008DFF48029E493A3F85407240CC8C333E4
:10093400C4540F4420C8834004F456800146F6DFB3
:10094400E4800B01020408102040809009C2E47E78
:10095400019360BCA3FF543F30E509541FFEE493A8
:10096400A360010ECF54C025E060A840B8E493A36F
:10097400FAE493A3F8E493A3C8C582C8CAC583CA9A
:10098400F0A3C8C582C8CAC583CADFE9DEE780BE52
:0109E2000014
:00000001FF
