:0300000002090EE4
:0C090E00787FE4F6D8FD75811F020955C2
:1009C800020800000A0A0000000000000000000001
:1009D8000A16003F0006005B004F00660214000084
:100A0800E4FFFEE4FCFD0DBD00010CED64C84C7074
:0C0A1800F50FBF00010EBE07EABFD0E7DB
:010A240022AF
:100A2500E4FFFEE4FCFD0DBD00010CED64644C70BB
:0C0A3500F50FBF00010EBE03EABFE8E7AA
:010A41002292
:100A4200E4FFFEE4FCFD0DBD00010CED645A4C70A8
:0C0A5200F50FBF00010EBE03EABFE8E78D
:010A5E002275
:10099A00209406750A00750B01209306750C0075E4
:1009AA000D01209206750E00750F01209106751033
:0E09BA000075110120900675120075130122C0
:0C0A8100D296C295120A08D295C29622A5
:100A5F00D2B0C2B1120A25C2B0D2B1120A42C2B18B
:010A6F002264
:100A7000D2B1C2B0120A25C2B1D2B0120A42C2B07B
:010A80002253
:0C0A8D00758911758CDDE4F58AD28C228D
:03000B00020AA046
:040AA00012099A326B
:070A9900D2AFD2AAD28A22DB
:030013000209E9F6
:1009E900C0E0C0D075D000C004C005C006C0071261
:0F09F9000A81D007D006D005D004D0D0D0E0328C
:10080000120A8D120A99C296D29575B0C0D2AFD293
:10081000A975A03FE4F514F515F514F515E51525B2
:10082000E0240AF8E6FE08E64E604FD3E515950988
:10083000E5086480F8E514648098403EE509651594
:100840007004E50865146032120A5F0509E5097055
:10085000020508FF25E02416F808E6F5A0EF25E0DC
:10086000240AF8E6FE08E64E60D2120A81E5092560
:10087000E0240AF8E4F608F680C20515E5157002D2
:100880000514C39405E514648094804090751400A9
:10089000751504751400751504C3E51464809480FF
:1008A0005003020814E51525E0240AF8E6FE08E6E0
:1008B0004E6051C3E5159509E5086480F8E51464B8
:1008C00080985040E50965157004E50865146034AA
:1008D000120A70E509150970021508AF09EF25E045
:1008E0002416F808E6F5A0EF25E0240AF8E6FE084D
:1008F000E64E60D0120A81E50925E0240AF8E4F604
:0E09000008F680C0E5151515708F1514808B54
:10091A00020800E493A3F8E493A34003F68001F2EB
:10092A0008DFF48029E493A3F85407240CC8C333DE
:10093A00C4540F4420C8834004F456800146F6DFAD
:10094A00E4800B01020408102040809009C8E47E6C
:10095A00019360BCA3FF543F30E509541FFEE493A2
:10096A00A360010ECF54C025E060A840B8E493A369
:10097A00FAE493A3F8E493A3C8C582C8CAC583CA94
:10098A00F0A3C8C582C8CAC583CADFE9DEE780BE4C
:0109E800000E
:00000001FF
